{
  "contractName": "Openlab",
  "abi": [
    {
      "constant": true,
      "inputs": [],
      "name": "totalClicks",
      "outputs": [
        {
          "name": "",
          "type": "uint32"
        }
      ],
      "payable": false,
      "stateMutability": "view",
      "type": "function"
    },
    {
      "inputs": [],
      "payable": false,
      "stateMutability": "nonpayable",
      "type": "constructor"
    },
    {
      "constant": false,
      "inputs": [],
      "name": "addClick",
      "outputs": [],
      "payable": false,
      "stateMutability": "nonpayable",
      "type": "function"
    },
    {
      "constant": true,
      "inputs": [],
      "name": "getClicks",
      "outputs": [
        {
          "name": "",
          "type": "uint32"
        }
      ],
      "payable": false,
      "stateMutability": "view",
      "type": "function"
    }
  ],
  "bytecode": "0x608060405260008060006101000a81548163ffffffff021916908363ffffffff16021790555034801561003157600080fd5b50610171806100416000396000f300608060405260043610610057576000357c0100000000000000000000000000000000000000000000000000000000900463ffffffff16806315e62b911461005c578063d340cce214610093578063f58c5a67146100aa575b600080fd5b34801561006857600080fd5b506100716100e1565b604051808263ffffffff1663ffffffff16815260200191505060405180910390f35b34801561009f57600080fd5b506100a86100f6565b005b3480156100b657600080fd5b506100bf61012c565b604051808263ffffffff1663ffffffff16815260200191505060405180910390f35b6000809054906101000a900463ffffffff1681565b60016000809054906101000a900463ffffffff16016000806101000a81548163ffffffff021916908363ffffffff160217905550565b60008060009054906101000a900463ffffffff169050905600a165627a7a7230582026b49ad488a23bf4d4f1e0c256d34fd53fc227d8ff2c13707a27c40f9c826dce0029",
  "source": "pragma solidity 0.4.23;\n\ncontract Openlab {\n\tuint32 public totalClicks = 0;\n\n\tfunction Openlab() public {}\n\n\tfunction addClick() public {\n\t\ttotalClicks = totalClicks + 1;\n\t}\n\n\tfunction getClicks() public view returns (uint32) {\n\t\treturn totalClicks;\n\t}\n\n\n}",
  "sourcePath": "/Users/aakash/WebstormProjects/openlabsbangalore/contracts/Openlab.sol",
  "compiler": {
    "name": "solc",
    "version": "0.4.23+commit.124ca40d.Emscripten.clang"
  },
  "schemaVersion": "2.0.0",
  "updatedAt": "2018-10-06T11:51:18.655Z"
}