{
  "contractName": "Openlab",
  "abi": [
    {
      "constant": true,
      "inputs": [],
      "name": "totalClicks",
      "outputs": [
        {
          "name": "",
          "type": "uint256"
        }
      ],
      "payable": false,
      "stateMutability": "view",
      "type": "function"
    },
    {
      "inputs": [],
      "payable": false,
      "stateMutability": "nonpayable",
      "type": "constructor"
    },
    {
      "constant": false,
      "inputs": [],
      "name": "addClick",
      "outputs": [],
      "payable": false,
      "stateMutability": "nonpayable",
      "type": "function"
    },
    {
      "constant": false,
      "inputs": [],
      "name": "removeClick",
      "outputs": [],
      "payable": false,
      "stateMutability": "nonpayable",
      "type": "function"
    },
    {
      "constant": false,
      "inputs": [
        {
          "name": "_text",
          "type": "bytes32"
        }
      ],
      "name": "addText",
      "outputs": [],
      "payable": false,
      "stateMutability": "nonpayable",
      "type": "function"
    },
    {
      "constant": true,
      "inputs": [],
      "name": "getText",
      "outputs": [
        {
          "name": "",
          "type": "bytes32[]"
        }
      ],
      "payable": false,
      "stateMutability": "view",
      "type": "function"
    },
    {
      "constant": true,
      "inputs": [],
      "name": "getClicks",
      "outputs": [
        {
          "name": "",
          "type": "uint256"
        }
      ],
      "payable": false,
      "stateMutability": "view",
      "type": "function"
    }
  ],
  "bytecode": "0x60806040526000805534801561001457600080fd5b5061029d806100246000396000f300608060405260043610610078576000357c0100000000000000000000000000000000000000000000000000000000900463ffffffff16806315e62b911461007d578063a05e48af146100a8578063b815e6cd146100bf578063d340cce2146100f0578063e00fe2eb14610107578063f58c5a6714610173575b600080fd5b34801561008957600080fd5b5061009261019e565b6040518082815260200191505060405180910390f35b3480156100b457600080fd5b506100bd6101a4565b005b3480156100cb57600080fd5b506100ee60048036038101908080356000191690602001909291905050506101b2565b005b3480156100fc57600080fd5b506101056101fe565b005b34801561011357600080fd5b5061011c61020c565b6040518080602001828103825283818151815260200191508051906020019060200280838360005b8381101561015f578082015181840152602081019050610144565b505050509050019250505060405180910390f35b34801561017f57600080fd5b50610188610268565b6040518082815260200191505060405180910390f35b60005481565b600160005403600081905550565b60006001028160001916141515156101c957600080fd5b600181908060018154018082558091505090600182039060005260206000200160009091929091909150906000191690555050565b600160005401600081905550565b6060600180548060200260200160405190810160405280929190818152602001828054801561025e57602002820191906000526020600020905b81546000191681526020019060010190808311610246575b5050505050905090565b600080549050905600a165627a7a7230582094fd64100984f315ba060d1f6e7d098cd05bfffbbea59984d777be0c8bf4fe050029",
  "source": "pragma solidity 0.4.23;\n\ncontract Openlab {\n\tuint256 public totalClicks = 0;\n\tbytes32[] text;\n\n\tfunction Openlab() public {}\n\n\tfunction addClick() public {\n\t\ttotalClicks = totalClicks + 1;\n\t}\n\n\tfunction removeClick() public {\n\t\ttotalClicks = totalClicks - 1;\n\t}\n\n\tfunction addText(bytes32 _text) {\n\t\trequire(_text != 0);\n\t\ttext.push(_text);\n\t}\n\n\tfunction getText() public view returns (bytes32[]) {\n\t\treturn text;\n\t}\n\n\tfunction getClicks() public view returns (uint256) {\n\t\treturn totalClicks;\n\t}\n}",
  "sourcePath": "/Users/aakash/WebstormProjects/openlabsbangalore/contracts/Openlab.sol",
  "compiler": {
    "name": "solc",
    "version": "0.4.23+commit.124ca40d.Emscripten.clang"
  },
  "schemaVersion": "2.0.0",
  "updatedAt": "2018-11-24T16:47:32.620Z"
}